:020000040800F2
:100000004005002001010008C51A0008F317000888
:10001000C11A0008490100089B2D000800000000DB
:10002000000000000000000000000000812B00081C
:100030004D01000800000000011B0008832B000890
:100040001B0100081B0100081B0100081B01000820
:100050001B0100081B0100081B0100081B01000810
:100060001B0100081B0100081B0100081B01000800
:100070001B0100081B0100081B0100081B010008F0
:100080001B0100081B0100081B0100081B010008E0
:100090001B0100081B0100081B0100081B010008D0
:1000A0001B0100081B0100081B0100081B010008C0
:1000B0001B010008792C00081B0100081B01000827
:1000C0001B0100081B0100081B0100082D1B000874
:1000D0001B0100081B0100081B0100081B01000890
:1000E0001B0100081B0100081B010008DFF80CD0F1
:1000F00000F018F800480047ED2D000840050020EA
:100100000648804706480047FEE7FEE7FEE7FEE7B1
:10011000FEE7FEE7FEE7FEE7FEE7FEE7212C00082C
:10012000ED000008064C074D06E0E06840F00103D2
:1001300094E8070098471034AC42F6D3FFF7DAFF93
:100140003C3700085C37000800BFFEE7704700003E
:1001500070B50446002594F82100022803D004203D
:10016000A063012548E02068006820F00E002168A7
:1001700008602068006820F00100216808601F49BD
:100180002068884201D1012026E01C4914312068F2
:10019000884201D110201FE0184928312068884288
:1001A00001D1801518E015493C312068884201D101
:1001B000801411E0114950312068884202D14FF477
:1001C000803009E00D4964312068884202D14FF443
:1001D000801001E04FF08070084908394860012024
:1001E00084F8210000BF002084F8200000BF606B6D
:1001F00010B12046616B8847284670BD0800024058
:1002000070B5044600F0ACF906462546681C10B1EE
:1002100004480078054400BF00F0A2F9801BA84202
:10022000FAD370BD1C0000202DE9F84703460024D6
:10023000002000258446002700226EE14FF00108CF
:1002400008FA02F4D1F8008008EA0400A0427DD147
:10025000DFF8D0A2D1F80480A8EB0A09D0453AD043
:1002600014DCB8F1030F50D009DCB8F1000F31D025
:10027000B8F1010F1CD0B8F1020F49D120E0B8F15C
:10028000110F18D0B8F1120F42D11EE0B9F5881F36
:1002900025D006DCB9F5803F20D0B9F5801F37D1D5
:1002A0001AE0B9F5001F18D0B9F5041F30D117E0D6
:1002B000D1F80CC02DE0D1F80C8008F1040C28E036
:1002C000D1F80C8008F1080C23E0D1F80C8008F17B
:1002D0000C0C1EE000BF00BF00BF00BF00BF00BF8E
:1002E000D1F80880B8F1000F02D14FF0040C0BE0F8
:1002F000D1F80880B8F1010F03D14FF0080C1C6150
:1003000002E04FF0080C5C6103E04FF0000C00E0ED
:1003100000BF00BFFF2801D8984601E003F10408A0
:100320004646FF2802D84FEA820803E0A2F10808F7
:100330004FEA88084746D6F800804FF00F0909FABF
:1003400007F928EA09080CFA07F900E088E048EA0A
:100350000908C6F80080D1F8048008F08058B8F188
:10036000805F7DD100BFDFF8C081D8F8188048F0E9
:100370000108DFF8B491C9F81880C846D8F8188089
:1003800008F00108CDF8008000BF00BF4FEAB9387F
:100390004FEA920958F829504FEA82784FEA1879C3
:1003A0004FF00F0808FA09F825EA0805DFF87C8104
:1003B000434502D14FF0000816E0DFF87481434551
:1003C00002D14FF001080FE0DFF86881434502D108
:1003D0004FF0020808E0DFF86081434502D14FF09A
:1003E000030801E04FF004084FEA82794FEA1979D7
:1003F00008FA09F848EA0505DFF840814FEA920952
:1004000048F82950D1F8048008F48038B8F5803FC6
:100410000AD1DFF82C81D8F8008048EA0008DFF81C
:100420002091C9F8008009E0DFF81481D8F8008035
:1004300028EA0008DFF80891C9F80080D1F80480A4
:1004400008F40038B8F5003F10D1DFF8F48008F167
:100450000408D8F8008048EA0008DFF8E49000E0DB
:100460005AE009F10409C9F800800DE0DFF8D080F6
:1004700008F10408D8F8008028EA0008DFF8C090E6
:1004800009F10409C9F80080D1F8048008F4801843
:10049000B8F5801F0ED1DFF8A88008F10808D8F859
:1004A000008048EA0008DFF8989009F10809C9F8C7
:1004B00000800DE0DFF8888008F10808D8F8008097
:1004C00028EA0008DFF8789009F10809C9F80080E7
:1004D000D1F8048008F40018B8F5001F0ED1DFF839
:1004E000608008F10C08D8F8008048EA0008DFF8BE
:1004F000509009F10C09C9F800800DE0DFF8408048
:1005000008F10C08D8F8008028EA0008DFF83090DD
:1005100009F10C09C9F80080521C102AFFF48EAEB4
:10052000BDE8F887000011100010024000080140EB
:10053000000C01400010014000140140080001407F
:1005400000040140024693680B400BB1012000E01B
:10055000002070470AB1016101E00B04036170479C
:10056000014800687047000014000020034800683C
:1005700003490978084401490860704714000020C5
:100580001C00002010B50848006840F01000064923
:100590000860032000F0D0F8002000F007F800F019
:1005A0002BF8002010BD00000020024070B504466A
:1005B0000E4800784FF47A71B1FBF0F00C490968ED
:1005C000B1FBF0F5284600F00FFE08B1012070BD28
:1005D000102C07D200222146501E00F06EF805486C
:1005E000046001E00120F2E70020F0E71C00002099
:1005F000200000201800002008B500BF26488069B0
:1006000040F00100244988610846806900F001003B
:10061000009000BF00BF00BF0846C06940F0805096
:10062000C8610846C06900F08050009000BF00BF5C
:10063000032000F081F8002211466FF00B0000F05B
:100640003CF8002211466FF00A0000F036F8002254
:1006500011466FF0090000F030F800221146501FDB
:1006600000F02BF800221146101F00F026F800229F
:100670001146901E00F021F800221146501E00F095
:100680001CF800BF0549486820F0E06040F00070A9
:10069000486000BF08BD000000100240000001409B
:1006A00000BF00F01F02012191404209920002F1B7
:1006B000E022C2F8001100BF70472DE9F05F8046CC
:1006C0000D461646002701F0FFF9074639462A462F
:1006D000334601F00700C0F1070ABAF1040F02D94E
:1006E0004FF0040A01E0C0F1070AD14600F1040A04
:1006F000BAF1070F02D24FF0000A01E0A0F1030A9D
:10070000D4464FF0010A0AFA09FAAAF1010A0AEAE4
:10071000020A0AFA0CFA4FF0010B0BFA0CFBABF1D0
:10072000010B0BEA030B4AEA0B042146404601F099
:10073000D3F9BDE8F09F000000BF00F00702064BB0
:1007400019684FF6FF031940044B0B4343EA02219B
:10075000014B196000BF70470CED00E00000FA0586
:1007600070B504460D4600266248006800F0070098
:10077000A8420ED25F48006820F0070028435D4978
:1007800008600846006800F00700A84201D0012078
:1007900070BD207800F00200022807D1564840685A
:1007A00020F0F000A168084353494860207800F029
:1007B000010000285DD06068012806D14E4800681D
:1007C00000F4003090B90120E2E76068022806D109
:1007D0004948006800F0007040B90120D8E7464859
:1007E000006800F0020008B90120D1E742484068E3
:1007F00020F00300616808433F494860FFF7B0FEFE
:1008000006466068012810D108E0FFF7A9FE801BAA
:1008100041F28831884201D90320B9E7364840685F
:1008200000F00C000428F0D123E06068022810D109
:1008300008E0FFF795FE801B41F28831884201D91C
:100840000320A5E72C48406800F00C000828F0D1F0
:100850000FE008E0FFF784FE801B41F288318842F8
:1008600001D9032094E72448406800F00C000028D8
:10087000F0D12048006800F00700A8420ED91D48BA
:10088000006820F0070028431A49086008460068FD
:1008900000F00700A84201D0012079E7207800F09D
:1008A0000400042807D11448406820F4E060E1689F
:1008B000084311494860207800F00800082808D152
:1008C0000D48406820F46050216940EAC1000A499F
:1008D000486000F01DF808494968C1F30311074A50
:1008E000515CC840064908600020FFF75FFE002009
:1008F0004EE70000002002400010024024370008AC
:1009000020000020014800687047000020000020FF
:10091000F0B585B00FF26C0C9CE8E01001A8A0E8DF
:10092000E0101CA52D680095002100220023002462
:100930000020194D696801F00C05F5B1042D02D0B5
:10094000082D19D101E0154819E001ADC1F3834626
:10095000AC5D01F4803555B10F4D6D68C5F3404570
:100960001DF805200D4D6543B5FBF2F302E00C4D7B
:1009700004FB05F3184602E000BF084800BF00BFB3
:1009800005B0F0BD02030405060708090A0B0C0DAB
:100990000E0F1010010200000010024000127A0039
:1009A00000093D00F8B504460025207800F001005C
:1009B000002878D0F848406800F00C0004280CD0DB
:1009C000F548406800F00C00082811D1F248406852
:1009D00000F48030B0F5803F0AD1EF48006800F4A1
:1009E000003000285FD0606800285CD10120F8BD8D
:1009F00000BF6068B0F5803F06D1E748006840F46A
:100A00008030E549086028E0606858B9E24800682D
:100A100020F48030E04908600846006820F4802017
:100A200008601AE06068B0F5A02F0BD1DA480068C2
:100A300040F48020D84908600846006840F48030BF
:100A400008600AE0D448006820F48030D249086089
:100A50000846006820F48020086000BF606888B104
:100A6000FFF77EFD054606E0FFF77AFD401B642890
:100A700001D90320BBE7C848006800F40030002813
:100A8000F2D010E0FFF76CFD054606E0FFF768FDC9
:100A9000401B642801D90320A9E7BF48006800F47F
:100AA00000300028F2D1207800F00200022857D14F
:100AB000B948406800F00C0050B1B748406800F0F9
:100AC0000C00082818D1B448406800F4803098B968
:100AD000B148006800F0020020B12069012801D06F
:100AE000012084E7AC48006820F0F800616940EA22
:100AF000C100A949086033E02069E8B10120A74995
:100B00000860FFF72DFD054606E0FFF729FD401BB5
:100B1000022801D903206AE79F48006800F002001C
:100B20000028F2D09C48006820F0F800616940EA93
:100B3000C1009949086013E0002098490860FFF758
:100B40000FFD054606E0FFF70BFD401B022801D90B
:100B500003204CE79048006800F002000028F2D122
:100B6000207800F0080008282DD1A069B8B1012034
:100B70008B490860FFF7F4FC054606E0FFF7F0FC40
:100B8000401B022801D9032031E78348406A00F066
:100B900002000028F2D0012000F0B4FF13E0002092
:100BA0007F490860FFF7DCFC054606E0FFF7D8FC4C
:100BB000401B022801D9032019E77748406A00F05A
:100BC00002000028F2D1207800F00400042873D13C
:100BD00000267148C06900F0805070B900BF6E48AF
:100BE000C06940F080506C49C8610846C06900F097
:100BF0008050009000BF00BF01266A48006800F4E2
:100C00008070B0B96748006840F48070654908603A
:100C1000FFF7A6FC054606E0FFF7A2FC401B642890
:100C200001D90320E3E65F48006800F480700028E3
:100C3000F2D000BFE068012806D15748006A40F0B2
:100C400001005549086227E0E06858B95248006A37
:100C500020F00100504908620846006A20F00400B4
:100C6000086219E0E06805280BD14B48006A40F0A3
:100C70000400494908620846006A40F00100086221
:100C80000AE04548006A20F001004349086208462E
:100C9000006A20F00400086200BFE068A0B1FFF71E
:100CA0005FFC054609E0FFF75BFC401B41F2883121
:100CB000884202D903209AE622E03748006A00F011
:100CC00002000028EFD012E0FFF74AFC054608E0DA
:100CD000FFF746FC401B41F28831884201D90320CE
:100CE00085E62D48006A00F002000028F0D1012EB0
:100CF00005D12948C06920F080502749C86100BF4C
:100D0000E069C8B32448406800F00C00082860D0AF
:100D1000E069022848D1002020490866FFF720FC3E
:100D2000054606E0FFF71CFC401B022801D9032002
:100D30005DE61948006800F000700028F2D1206AD2
:100D4000B0F5803F07D11448406820F40030A16816
:100D5000084311494860D4E9080108430E4949682D
:100D600021F4741108430C49486001200B490866BE
:100D7000FFF7F6FB054607E02DE0FFF7F1FB401B10
:100D8000022801D9032032E60348006800F0007011
:100D90000028F2D01FE00000001002400000424294
:100DA000800442420070004000200C490866FFF7B2
:100DB000D7FB054606E0FFF7D3FB401B022801D90D
:100DC000032014E60648006800F000700028F2D105
:100DD00001E001200BE6002009E60000000042428D
:100DE0000010024070470000F8B5044620684668CD
:100DF0002068856805F0400048B905F0010030B171
:100E000006F0400018B12046216C8847F8BD05F077
:100E1000020030B106F0800018B12046616C8847AE
:100E2000F4E705F06000002866D006F020000028F6
:100E300062D005F04000F0B194F8510003280ED0C4
:100E4000606D40F00400606500BF002000902068E5
:100E5000C068009020688068009000BF0BE000BF71
:100E6000002000902068C068009020688068009092
:100E700000BF00BFCAE705F0200088B1606D40F0F8
:100E80000100606500BF002000902068806800902D
:100E90002068006820F040002168086000BF00BFA3
:100EA000606D20B32068406820F0E0002168486051
:100EB000012084F8510006F0020010B906F001008C
:100EC000B0B12068406820F0030021684860E06C01
:100ED00028B10A48E16C4863E06CFFF739F9A06C6F
:100EE00028B10648A16C4863A06CFFF731F902E015
:100EF0002046FFF777FF89E700BF87E7651B0008FB
:100F000010B504460CB9012010BD0021A16294F86F
:100F1000510010B9204600F037F8022084F8510043
:100F20002068006820F0400021680860D4E90101D1
:100F30000843E16808432169084361690843218B3C
:100F400001F400710843E1690843216A0843A16A7A
:100F50000843216808600421A06901EA1040616A21
:100F60000843216848602168E06A08612068C06918
:100F700020F400602168C86100206065012084F8C9
:100F800051000020C0E7000010B586B004461D499E
:100F90002068884233D100BF1B48806940F48050EC
:100FA000194988610846806900F48050019000BFAB
:100FB00000BF4FF4004002900220039003200590F0
:100FC00002A91248FFF730F928200290022003906E
:100FD0000320059002A90E48FFF726F900BF0D492E
:100FE000486840F0E06040F00100486000BF002227
:100FF00011462320FFF761FB2320FFF751FB06B0CA
:1010000010BD000000300140001002400008014007
:10101000000C0140000001402DE9F84304460D4654
:1010200017461E464FF00008C14600BF94F8500016
:10103000012802D10220BDE8F883012084F8500085
:1010400000BFFFF78DFA804694F85100012802D0C6
:101050004FF00209A9E005B117B94FF00109A4E06A
:10106000032084F85100002060652563A786E78689
:10107000A063A087E08760642064A068B0F5004F9B
:1010800005D12068006840F480402168086020682D
:10109000006800F04000402805D02068006840F05B
:1010A000400021680860E068B0F5006F2AD16068F0
:1010B00010B1E08E012806D128882168C860AD1CD7
:1010C000E08E401EE08619E02068806800F0020093
:1010D000022807D128882168C860AD1CE08E401E18
:1010E000E0860BE03EB1701C40B1FFF739FAA0EB8F
:1010F0000800B04202D34FF0030956E0E08E00280A
:10110000E2D129E0606810B1E08E012806D128788C
:10111000216808736D1CE08E401EE08619E020688F
:10112000806800F00200022807D12878216808733F
:101130006D1CE08E401EE0860BE03EB1701C40B19D
:10114000FFF70EFAA0EB0800B04202D34FF00309FC
:101150002BE0E08E0028E2D1334601220221204616
:10116000CDF8008000F008FD10B14FF003091CE03D
:1011700042463146204600F0E1FC20B14FF0010923
:101180002020606511E0A06850B900BF00200090E9
:101190002068C068009020688068009000BF00BF91
:1011A000606D08B14FF0010900BF012084F85100C3
:1011B00000BF002084F8500000BF48463BE70428E9
:1011C00008D14FF0E021096941F004014FF0E0221D
:1011D000116107E04FF0E021096921F004014FF0AF
:1011E000E02211617047704770B504462546681EBD
:1011F000B0F1807F01D301200FE0681E4FF0E021A5
:1012000048610F214FF0FF3000F066FC00204FF0E6
:10121000E021886107200861002070BD10B5FFF74C
:10122000E2FF10BD70477047024600BF92F83C00D5
:10123000012801D102207047012082F83C0000BF44
:10124000022082F83D001068406820F070001368AA
:101250005860106840680B6818431368586010683D
:10126000806820F0800013689860106880684B6880
:10127000184313689860012082F83D0000BF0020E9
:1012800082F83C0000BF00BFD5E710B504460CB99A
:10129000012010BD94F83D0028B9002084F83C00DE
:1012A000204600F00DF8022084F83D00211D206842
:1012B00001F0EAFC012084F83D000020E9E700008D
:1012C00038B504461649206888420DD100BF15483C
:1012D000806940F40060134988610846806900F421
:1012E0000060009000BF19E00F492068884215D1C6
:1012F00000BF0C48C06940F002000A49C8610846B6
:10130000C06900F00200009000BF00BF002211463B
:101310001D20FFF7D2F91D20FFF7C2F938BD0000EC
:10132000002C014000100240000400400146022051
:1013300081F83D000868006840F001000A6810600C
:10134000012081F83D000020704701460868C06810
:1013500040F001000A68D0600868006840F00100B1
:101360000A681060002070472DE9F04104460D46E0
:10137000002600BF94F83C00012802D10220BDE8FD
:10138000F081012084F83C0000BF022084F83D0079
:101390002068866826F0770626F47F4620688660F7
:1013A000286850283BD00CDC202860D004DC0028C2
:1013B00053D0102865D155E030285DD0402860D149
:1013C00041E0602835D070280DD0B0F5805F03D0A3
:1013D000B0F5005F55D115E02068806820F0070067
:1013E000216888604EE0D5E902136A68206801F040
:1013F00093FC2068866826F0770646F0770620681A
:1014000086603FE0D5E902136A68206801F084FC39
:101410002068806840F480402168886032E0EA6893
:101420006968206801F08EFC5021206801F080FC82
:1014300028E0EA686968206801F099FC602120686A
:1014400001F076FC1EE0EA686968206801F07AFC29
:101450004021206801F06CFC14E00021206801F0BC
:1014600067FC0FE01021206801F062FC0AE02021F7
:10147000206801F05DFC05E03021206801F058FC97
:1014800000E000BF00BF012084F83D0000BF002045
:1014900084F83C0000BF00BF71E72DE9F04104462D
:1014A0000D464FF000080026002714B90120BDE8C2
:1014B000F08194F83D0028B9002084F83C002046D3
:1014C00000F046F8022084F83D002068806820F093
:1014D000070021688860211D206801F0D5FB206885
:1014E000D0F80880206886692068076A286840EA82
:1014F000080840F203308643A969A86840EA012041
:10150000064340F60C4086434FF2F0008643E969FB
:10151000E86840EA0120064328690001296A40EA98
:101520000130064327F0220727F0880769696868B9
:1015300040EA011007432068C0F8088020688661EF
:1015400020680762012084F83D000020AFE700001A
:1015500010B586B004462068B0F1804F16D100BFA8
:101560000B48C06940F001000949C8610846C069DC
:1015700000F00100019000BF00BF03200290002096
:101580000390049002A90348FEF74EFE06B010BD7A
:10159000001002400008014030B504460D4615B168
:1015A000042D0CD105E001220021206801F0A6FBEA
:1015B00010E001220421206801F0A0FB0AE00122D2
:1015C0000021206801F09AFB01220421206801F02B
:1015D00095FB00BF00BF2068006840F00100216853
:1015E0000860002030BD704710B5044620680069CF
:1015F000C0F34000D8B12068C068C0F34000B0B16B
:101600006FF002002168086101202077206880695E
:1016100000F0030018B12046FFF7E5FF05E0204683
:1016200000F0ADF8204600F0ABF8002020772068ED
:101630000069C0F38000D8B12068C068C0F38000A2
:10164000B0B16FF0040021680861022020772068A3
:10165000806900F4407018B12046FFF7C4FF05E030
:10166000204600F08CF8204600F08AF80020207711
:1016700020680069C0F3C000D8B12068C068C0F31A
:10168000C000B0B16FF00800216808610420207725
:101690002068C06900F0030018B12046FFF7A3FFDF
:1016A00005E0204600F06BF8204600F069F80020C5
:1016B000207720680069C0F30010D8B12068C068A6
:1016C000C0F30010B0B16FF010002168086108206D
:1016D00020772068C06900F4407018B12046FFF7F9
:1016E00082FF05E0204600F04AF8204600F048F866
:1016F000002020772068006900F0010058B12068C0
:10170000C06800F0010030B16FF00100216808618D
:10171000204600F037F820680069C0F3C01058B1C7
:101720002068C068C0F3C01030B16FF0800021683D
:1017300008612046FFF776FD20680069C0F380103D
:1017400058B12068C068C0F3801030B16FF040001D
:1017500021680861204600F04BF820680069C0F35A
:10176000401058B12068C068C0F3401030B16FF02D
:101770002000216808612046FFF755FD10BD704725
:101780007047000070B5054611A44FF08040406AD4
:10179000104908604FF080400068C0F300100E4907
:1017A00008700C48006810B1012804D101E00BA4B6
:1017B00001E00BA400BF00BF04210A48FEF7C2FEEF
:1017C00028B901200849087000200849087070BD38
:1017D000780000000C000020100000203000000005
:1017E0003100000000080140090000200A0000202C
:1017F000704700BFFEE7000000B585B000BF31486C
:10180000806940F010002F4988610846806900F027
:101810001000009000BF00BF00BF0846806940F084
:10182000200088610846806900F02000009000BF19
:1018300000BF00BF0846806940F004008861084688
:10184000806900F00400009000BF00BF00BF0846A0
:10185000806940F0080088610846806900F008004F
:10186000009000BF00BF00224FF400511648FEF761
:1018700071FE002201211548FEF76CFE4FF4005066
:10188000019001200290002003900220049001A901
:101890000D48FEF7C9FC042001900020029003903F
:1018A00001A90B48FEF7C0FC012001900290002026
:1018B00003900220049001A90448FEF7B5FC05B08E
:1018C00000BD00000010024000100140000C01406B
:1018D0000008014010B51048104908604FF48270AC
:1018E000486000210D488160C16002210161012131
:1018F0004161890481613821C16100210162416235
:1019000081620A21C162FFF7FBFA20B14FF49E7198
:1019100003A001F044FA10BD003001402400002073
:101920002E2E2F5372632F6D61696E2E630000009F
:1019300000B587B019481A4908604720486000215F
:10194000174881604FF6FF71C1600021016141615C
:101950008161FFF79AFC20B140F2511111A001F012
:101960001EFA4FF48050039003A90D48FFF7FCFCCA
:1019700020B140F257110BA001F011FA00200190A4
:10198000029001A90648FFF74FFC20B14FF4AF7158
:1019900004A001F004FA07B000BD0000002C0140D3
:1019A0007C0000202E2E2F5372632F6D61696E2EE6
:1019B0006300000000B58BB04FF080401B49086009
:1019C000002048600021194881600221C160002187
:1019D00001618161012002900020039001200490A8
:1019E000002005900F20069000200790012008900D
:1019F000002009900F200A9002A90C48FFF74DFD26
:101A000020B140F27B110AA001F0C9F9002000903A
:101A1000019069460548FFF707FC20B14FF4C171FA
:101A200003A001F0BCF90BB000BD0000BC00002019
:101A30002E2E2F5372632F6D61696E2E630000008E
:101A400000B587B018481949086023204860002174
:101A5000164881604FF47A71C16000210161816193
:101A6000FFF713FC20B14FF4CB7111A001F097F9EF
:101A70004FF48050039003A90C48FFF775FC20B188
:101A80004FF4CE710AA001F08AF900200190029073
:101A900001A90648FFF7C8FB20B140F2A31104A03A
:101AA00001F07DF907B000BD00040040FC000020FB
:101AB0002E2E2F5372632F6D61696E2E630000000E
:101AC00000BFFEE77047000002480068C0F3022034
:101AD000704700000CED00E010B5002807DA0A0797
:101AE000140E054A00F00F031B1FD45403E00A072D
:101AF000130E024A135410BD18ED00E000E400E09C
:101B00007047000008B508490968C9084FF47A729F
:101B1000B1FBF2F14143009100BF00BF00994A1EA2
:101B200000920029F9D108BD2000002010B502481C
:101B3000FFF75AF910BD000024000020F8B5044654
:101B40000D4616462B46002280212046009600F0C6
:101B500013F828B1606D40F0200060650320F8BDE7
:101B60000020FCE770B505466C6A0020E087E0863F
:101B70002046FFF737F970BD2DE9F04104460E46C7
:101B800017461D46DDF818803FE0681CE0B32DB114
:101B9000FEF7E6FCA0EB0800A84236D320684068B8
:101BA00020F0E000216848606068B0F5827F0DD1C8
:101BB000A068B0F5004F03D0A068B0F5806F05D1E4
:101BC0002068006820F0400021680860A06AB0F535
:101BD000005F0ED100BF206800684DF6FF7108401D
:101BE000216808602068006840F40050216808609F
:101BF00000BF012084F8510000BF002084F850008D
:101C000000BF0320BDE8F081FFE720688068304016
:101C1000B04201D1012000E00020B842B5D100203F
:101C2000F0E7000070B519480078012826D100249B
:101C300021E0202C07DA44F0800000F015FF80201E
:101C400000F012FF09E0A4F12001C9B241F08000C8
:101C500000F00AFF882000F007FF002507E00020C1
:101C600000F034FF002000F031FF681CC5B2082DE1
:101C7000F5DB601CC4B2402CDBDB05E0012000F08A
:101C8000F3FE0220FEF7BCFA70BD00000600002043
:101C900070B50646002541E0202D1DDA002418E02D
:101CA00045F0800000F0E0FE44F0800000F0DCFE33
:101CB0006100102202FB0511705C00F007FF61005B
:101CC000491C102202FB0511705C00F0FFFE601C35
:101CD000C4B2082CE4DB1FE000241BE0A5F12001C6
:101CE000C9B241F0800000F0BFFE44F0880000F06F
:101CF000BBFE6100102202FB0511705C00F0E6FEE5
:101D00006100491C102202FB0511705C00F0DEFE30
:101D1000601CC4B2082CE1DB681CC5B2402DBBDBE3
:101D200070BD000010B50446012C15D1302000F024
:101D30009BFE0120FEF764FA342000F095FE01209E
:101D4000FEF75EFA362000F08FFE0120FEF758FA0B
:101D500001200749087009E044B9302000F084FEF2
:101D60000120FEF74DFA00200149087010BD000067
:101D7000060000202DE9FF4F89B08246174601205A
:101D800008900020079017E117F801BBBBF1000F86
:101D900003D14FF0200B0020089017F8019BB9F1F8
:101DA000000F03D14FF0200900200890BBF1520F23
:101DB00002DAABF1200001E0ABF15200C4B2B9F19C
:101DC000520F02DAA9F1200001E0A9F15200C5B2D8
:101DD000BBF1520F1EDA04EB84007C49085C8DF8DD
:101DE000180004EB8400401C085C8DF8170004EB1D
:101DF0008400801C085C8DF8160004EB8400C01C75
:101E0000085C8DF8150004EB8400001D085C8DF85B
:101E100014001DE004EB84006D49085C8DF8180087
:101E200004EB8400401C085C8DF8170004EB840070
:101E3000801C085C8DF8160004EB8400C01C085C54
:101E40008DF8150004EB8400001D085C8DF814006B
:101E5000B9F1520F1EDA05EB85005C49085C8DF87C
:101E6000100005EB8500401C085C8DF80F0005EBA9
:101E70008500801C085C8DF80E0005EB8500C01CF9
:101E8000085C8DF80D0005EB8500001D085C8DF8E1
:101E90000C001DE005EB85004D49085C8DF8100035
:101EA00005EB8500401C085C8DF80F0005EB8500F4
:101EB000801C085C8DF80E0005EB8500C01C085CDA
:101EC0008DF80D0005EB8500001D085C8DF80C00F9
:101ED0004FF0000868E0BAF1040F0FDA08EBCA010E
:101EE000C9B241F0800000F0BFFD079A0A99114481
:101EF000C9B241F0800000F0B7FD10E0AAF1040182
:101F000008EBC101C9B241F0800000F0ADFD079AB5
:101F10000A991144C9B241F0880000F0A5FD0020E3
:101F20000290002610E005A8805D012101FA08F169
:101F3000084038B1F01C012101FA00F00299084371
:101F4000C0B20290701CC6B2052EECDB00200190DE
:101F5000002610E003A8805D012101FA08F1084085
:101F600038B1F01C012101FA00F001990843C0B218
:101F70000190701CC6B2052EECDB0C9830B90298AB
:101F800000F0A4FD019800F0A1FD09E00299C94309
:101F9000C8B200F09BFD0199C943C8B200F096FD9C
:101FA00008F1010000F0FF08B8F1080F93DB079873
:101FB000401CC0B2079000BF387818B108980028BC
:101FC0007FF4E2AE0DB0BDE8F08F000044310008B0
:101FD0003E3200082DE9FF4F9FB0154601201D90AD
:101FE00000201C90F6E315F8010B1B901B9818B904
:101FF00020201B9000201D9015F8010B1A901A98B4
:1020000018B920201A9000201D9015F8016B16B900
:10201000202600201D9015F8017B17B920270020ED
:102020001D9015F8018BB8F1000F03D14FF0200877
:1020300000201D9015F8019BB9F1000F03D14FF05E
:10204000200900201D9015F8010B1990199818B956
:102050002020199000201D9015F8010B1890189859
:1020600018B92020189000201D901B98522802DAE1
:102070001B98203801E01B98523800F0FF0A1A988C
:10208000522802DA1A98203801E01A98523800F0E3
:10209000FF0B522E02DAA6F1200001E0A6F1520059
:1020A000C0B21790522F02DAA7F1200001E0A7F189
:1020B0005200C0B21690B8F1520F02DAA8F1200017
:1020C00001E0A8F15200C0B21590B9F1520F02DA46
:1020D000A9F1200001E0A9F15200C0B214901998B2
:1020E000522802DA1998203801E019985238C0B203
:1020F00013901898522802DA1898203801E018989E
:102100005238C0B212901B9852281EDA0AEB8A008D
:10211000FE49085C8DF847000AEB8A00401C085C09
:102120008DF846000AEB8A00801C085C8DF845009B
:102130000AEB8A00C01C085C8DF844000AEB8A0098
:10214000001D085C8DF843001DE00AEB8A00F04991
:10215000085C8DF847000AEB8A00401C085C8DF88B
:1021600046000AEB8A00801C085C8DF845000AEBEB
:102170008A00C01C085C8DF844000AEB8A00001D30
:10218000085C8DF8430000208DF842001A98522810
:102190001EDA0BEB8B00DD49085C8DF841000BEB80
:1021A0008B00401C085C8DF840000BEB8B00801C02
:1021B000085C8DF83F000BEB8B00C01C085C8DF8B1
:1021C0003E000BEB8B00001D085C8DF83D001DE010
:1021D0000BEB8B00CE49085C8DF841000BEB8B00BC
:1021E000401C085C8DF840000BEB8B00801C085CE9
:1021F0008DF83F000BEB8B00C01C085C8DF83E0097
:102200000BEB8B00001D085C8DF83D0000208DF865
:102210003C00522E23DA179800EB8000BB49085C83
:102220008DF83B00179800EB8000401C085C8DF88F
:102230003A00179800EB8000801C085C8DF839008C
:10224000179800EB8000C01C085C8DF838001798C8
:1022500000EB8000001D085C8DF8370022E0179825
:1022600000EB8000AA49085C8DF83B00179800EB52
:102270008000401C085C8DF83A00179800EB800045
:10228000801C085C8DF83900179800EB8000C01C9A
:10229000085C8DF83800179800EB8000001D085C82
:1022A0008DF8370000208DF83600522F23DA16986B
:1022B00000EB80009549085C8DF83500169800EB1E
:1022C0008000401C085C8DF83400169800EB8000FC
:1022D000801C085C8DF83300169800EB8000C01C51
:1022E000085C8DF83200169800EB8000001D085C39
:1022F0008DF8310022E0169800EB80008449085CDC
:102300008DF83500169800EB8000401C085C8DF8B5
:102310003400169800EB8000801C085C8DF83300B8
:10232000169800EB8000C01C085C8DF832001698EF
:1023300000EB8000001D085C8DF8310000208DF856
:102340003000B8F1520F23DA159800EB80006F4986
:10235000085C8DF82F00159800EB8000401C085C8D
:102360008DF82E00159800EB8000801C085C8DF81D
:102370002D00159800EB8000C01C085C8DF82C0027
:10238000159800EB8000001D085C8DF82B0022E002
:10239000159800EB80005E49085C8DF82F001598B9
:1023A00000EB8000401C085C8DF82E00159800EBB7
:1023B0008000801C085C8DF82D00159800EB8000D3
:1023C000C01C085C8DF82C00159800EB8000001DE7
:1023D000085C8DF82B0000208DF82A00B9F1520F0F
:1023E00023DA149800EB80004849085C8DF8290036
:1023F000149800EB8000401C085C8DF828001498AD
:1024000000EB8000801C085C8DF82700149800EB1E
:102410008000C01C085C8DF82600149800EB80003A
:10242000001D085C8DF8250022E0149800EB800068
:102430003749085C8DF82900149800EB8000401C97
:10244000085C8DF82800149800EB8000801C085C64
:102450008DF82700149800EB8000C01C085C8DF8F4
:102460002600149800EB8000001D085C8DF8250004
:1024700000208DF824001998522823DA139800EBD5
:1024800080002249085C8DF82300139800EB80003F
:10249000401C085C8DF82200139800EB8000801C23
:1024A000085C8DF82100139800EB8000C01C085CCC
:1024B0008DF82000139800EB8000001D085C8DF85B
:1024C0001F0022E0139800EB80001149085C8DF892
:1024D0002300139800EB8000401C085C8DF822005C
:1024E000139800EB8000801C085C8DF82100139885
:1024F00000EB8000C01C085C8DF82000139800EBF6
:102500008000001D085C8DF81F0003E044310008C6
:102510003E32000800208DF81E001898522823DA59
:10252000129800EB8000F849085C8DF81D001298A5
:1025300000EB8000401C085C8DF81C00129800EB3A
:102540008000801C085C8DF81B00129800EB800056
:10255000C01C085C8DF81A00129800EB8000001D6A
:10256000085C8DF8190022E0129800EB8000E74922
:10257000085C8DF81D00129800EB8000401C085C80
:102580008DF81C00129800EB8000801C085C8DF810
:102590001B00129800EB8000C01C085C8DF81A002C
:1025A000129800EB8000001D085C8DF819000020D7
:1025B0008DF818001E9006E21F98042811DADDE954
:1025C0001E2102EBC101C9B241F0800000F04CFABB
:1025D0001C9A20991144C9B241F0800000F044FADD
:1025E00011E01F99091F1E9A02EBC101C9B241F007
:1025F000800000F039FA1C9A20991144C9B241F0C8
:10260000880000F031FA0020059000240EE010A8A8
:10261000005D01221E998A40104028B10120A0408F
:1026200005990843C0B20590601CC4B2082CEEDBCB
:102630000020049000240EE00EA8005D01221E99E7
:102640008A40104028B10120A04004990843C0B23C
:102650000490601CC4B2082CEEDB00200390002420
:102660000EE00CA8005D01221E998A40104028B19E
:102670000120A04003990843C0B20390601CC4B27B
:10268000082CEEDB0020029000240EE00AA8005D7A
:1026900001221E998A40104028B10120A0400299D1
:1026A0000843C0B20290601CC4B2082CEEDB0020CC
:1026B000019000240EE008A8005D01221E998A40C6
:1026C000104028B10120A04001990843C0B20190F8
:1026D000601CC4B2082CEEDB0020009000240EE049
:1026E00006A8005D01221E998A40104028B10120F1
:1026F000A04000990843C0B20090601CC4B2082CEE
:10270000EEDB229800286FD11C98032845DD1A982B
:10271000202801D1012000E00020202E01D101213C
:1027200000E000210843202F01D1012100E0002119
:102730000843B8F1200F01D1012100E00021084336
:10274000B9F1200F01D1012100E0002108431999BE
:10275000202901D1012100E00021084318992029F6
:1027600001D1012100E000210843B0B10020029016
:1027700001900090059800F0A9F9049800F0A6F9DE
:10278000039800F0A3F9029800F0A0F9019800F076
:102790009DF9009800F09AF911E11A983043202829
:1027A00001D1012000E0002046EA0701202901D1E3
:1027B000012100E00021084347EA0801202901D156
:1027C000012100E00021084348EA0901202902D143
:1027D000012101E000E100210843199949EA0101C2
:1027E000202902D1012101E02CE000210843B0B1F1
:1027F0000020029001900090059800F067F904987D
:1028000000F064F9039800F061F9029800F05EF9B5
:10281000019800F05BF9009800F058F9CFE00598B6
:1028200000F054F9049800F051F9039800F04EF9C3
:10283000029800F04BF9019800F048F9009800F078
:1028400045F9BCE01C98032851DD1A98202801D1D5
:10285000012000E00020202E01D1012100E0002114
:102860000843202F01D1012100E000210843B8F1E5
:10287000200F01D1012100E000210843B9F1200F10
:1028800001D1012100E0002108431999202901D13B
:10289000012100E0002108431899202901D10121DC
:1028A00000E00021084310B3002002900190009046
:1028B0000599C943C8B200F009F90499C943C8B2DF
:1028C00000F004F90399C943C8B200F0FFF8029977
:1028D000C943C8B200F0FAF80199C943C8B200F080
:1028E000F5F80099C943C8B200F0F0F867E01A980B
:1028F0003043202801D1012000E0002046EA0701F2
:10290000202905D1012104E0443100083E320008AD
:102910000021084347EA0801202901D1012100E0F4
:102920000021084348EA0901202901D1012100E0E2
:1029300000210843199949EA0101202901D1012107
:1029400000E000210843E0B10020029001900090D7
:102950000599C943C8B200F0B9F80499C943C8B28F
:1029600000F0B4F80399C943C8B200F0AFF8029878
:1029700000F0ACF8019800F0A9F8009800F0A6F873
:102980001DE00599C943C8B200F0A0F80499C943F5
:10299000C8B200F09BF80399C943C8B200F096F89A
:1029A0000299C943C8B200F091F80199C943C8B26D
:1029B00000F08CF80099C943C8B200F087F81E985F
:1029C000401CC0B21E901E980828FFF6F5AD1C985A
:1029D000C01CC0B21C9000BF287818B11D980028F8
:1029E0007FF401AB23B0BDE8F08F000010B50022EA
:1029F00001211C48FDF7AEFD0A20FDF701FC012274
:102A000011461848FDF7A6FD3220FDF7F9FB3020EE
:102A100000F02AF80A20FDF7F3FB302000F024F83C
:102A20000A20FDF7EDFB082000F01EF80A20FDF754
:102A3000E7FB012000F018F80C20FDF7E1FB062071
:102A400000F012F80120FDF7DBFB0C2000F00CF881
:102A50000120FDF7D5FB022000F006F80120FDF76C
:102A6000CFFB10BD000C014038B5044601224021C7
:102A70001448FDF76FFDF82000904FF0FF3301225E
:102A800069461148FEF7C8FA04F0F00000904FF0D4
:102A9000FF33012269460C48FEF7BEFAF02000EA37
:102AA000041000904FF0FF33012269460648FEF7FC
:102AB000B3FA322000F08CF9002240210148FDF7E2
:102AC00049FD38BD00080140240000201CB5044623
:102AD000012240211448FDF73DFDFA2001904FF0FE
:102AE000FF33012201A91148FEF796FA04F0F00025
:102AF00000904FF0FF33012269460C48FEF78CFA34
:102B0000F02000EA041000904FF0FF3301226946E4
:102B10000648FEF781FA322000F05AF900224021DF
:102B20000148FDF717FD1CBD0008014024000020EE
:102B300070B506460C46154636B1012E07D0022E5A
:102B400008D0032E0CD108E044F080040BE044F0E0
:102B5000900408E044F0880405E044F0980402E0A2
:102B600044F0800400BF00BFE0B2FFF77DFF03E048
:102B700015F8010BFFF7AAFF28780028F8D170BDDF
:102B8000704710B5FDF7F2FCFEF748FB10BD0000E2
:102B900010B590B001200690000407900020089026
:102BA00001200A9002200D90C1030E914FF4E01114
:102BB0000F9106A8FDF7F6FE20B14FF4867114A020
:102BC00000F0EDF80F200190022002908020039089
:102BD000C00004900590022101A8FDF7C1FD20B1BD
:102BE0004FF48D710AA000F0DAF8FDF78BFE4FF478
:102BF0007A71B0FBF1F42046FEF7F6FA0420FEF7F6
:102C0000DEFA00221146501EFDF757FD10B010BD30
:102C10002E2E2F5372632F6D61696E2E630000009C
:102C20001148006840F001000F49086008464068FC
:102C30000E4908400C494860084600680C490840A5
:102C4000094908600846006820F4802008600846AA
:102C5000406820F4FE0048604FF41F008860C803FD
:102C60000449086070470000001002400000FFF8AF
:102C7000FFFFF6FE08ED00E010B50248FEF7B4FCD9
:102C800010BD0000FC00002000220268184B984292
:102C900008D0B0F1804F05D0164B984202D0164BA9
:102CA000984203D122F070024B681A43104B9842AD
:102CB00008D0B0F1804F05D00E4B984202D00E4B99
:102CC000984203D122F44072CB681A4322F080026A
:102CD0004B691A4302608B68C3620B688362044BC2
:102CE000984201D10B6903630123436170470000DF
:102CF000002C0140000400400008004030B50023D3
:102D0000012404FA01F3046A9C430462046A02FA8F
:102D100001F52C43046230BD30B50C4600218168BA
:102D200021F47F4142EA032525432943816030BDD8
:102D30000A460021816821F0700142F0070319431F
:102D40008160704730B50B46144600210022026AAC
:102D5000056A25F001050562816921F0F00141EA6B
:102D6000041122F00A021A438161026230BD30B5BB
:102D70000B46144600210022056A25F01005056265
:102D80008169026A21F4704141EA043122F0A00213
:102D900042EA03128161026230BD00BFFEE700BF5C
:102DA000FEE702E008C8121F08C1002AFAD17047E6
:102DB0007047002001E001C1121F002AFBD17047BB
:102DC00010B50248FEF7B2FA10BD00007C000020EA
:102DD0000021054A1268516200BF03490968496A27
:102DE0008142FAD3704700007C000020FDF7CAFB47
:102DF000FFF7CEFEFEF700FDFEF76CFDFEF798FD37
:102E0000FEF7D8FDFEF71CFEFFF7DAFFFFF7EEFD39
:102E100018219848FEF7C0FBFEF704FF1420FDF7C9
:102E2000EFF90120FEF77EFF9348FEF731FF1420F3
:102E3000FDF7E6F90020FEF775FF90A20321084692
:102E4000FFF776FE4FF47A70FDF7DAF9FEF7EAFE47
:102E50000120FEF767FFFEF7E5FE0020FEF762FFA8
:102E600000208749087004E18648007800286FD167
:102E7000834890F9000010B101286AD16AE000BFD0
:102E8000814800780028FBD10120FEF74BFF00238A
:102E90007EA219461846FEF76DFF00237FA2194651
:102EA0000220FEF767FF002380A219460320FEF7E9
:102EB00061FF002381A219460420FEF75BFF002377
:102EC00082A219460520FFF785F8002381A2194642
:102ED0000620FFF77FF8002380A219460720FEF79F
:102EE00049FF00237EA201210720FEF743FF0023B4
:102EF0007CA202210720FEF73DFF00237AA20321D6
:102F00000720FEF737FF002378A204210720FEF7F1
:102F100031FF002376A205210720FEF72BFF0023B7
:102F200074A206210720FEF725FF002372A20721C5
:102F30000846FEF71FFF002370A208210720FEF7B6
:102F400019FF0020FEF7EEFE01204E49087027E031
:102F500027E023E00120FEF7E5FEFEF763FE0023F5
:102F600067A219461846FEF705FF002368A2194616
:102F70000220FEF7FFFE00236AA219460620FEF794
:102F8000F9FE00236AA219460720FEF7F3FE00208F
:102F9000FEF7C8FE01203B49087001E000BFFEE7D4
:102FA00067E03748007800282FD16448FEF7CDF954
:102FB0006348006810B1012826D112E00120FEF715
:102FC000B1FE012335A200210220FEF7D3FE00232B
:102FD00036A219460320FEF7CDFE0020FEF7A2FE22
:102FE00012E00120FEF79EFE00232CA219460220CB
:102FF000FEF7C0FE01232DA200210320FEF7BAFE3A
:103000000020FEF78FFE00BF00BF1D48007801289A
:103010002FD14A48FEF799F94948006810B10128B4
:1030200026D112E00120FEF77DFE01233DA2002102
:103030000620FEF79FFE00233DA219460720FEF75B
:1030400099FE0020FEF76EFE12E00120FEF76AFEF8
:10305000002334A219460620FEF78CFE012334A279
:1030600000210720FEF786FE0020FEF75BFE00BF72
:1030700000BFF9E6BC000020243300084D264D00B7
:10308000090000200A000020080000202020204D18
:10309000656E7520496E6963696F000054657374CD
:1030A00020436F6D706C65746F000000546573741D
:1030B000205061726369616C000000005469706F98
:1030C00067726166696120357837000031323320DC
:1030D000000000004761746F7300000030000000C2
:1030E0003100000032000000330000003400000016
:1030F00035000000360000003700000038000000F6
:1031000020205465737420436F6D706C65746F007C
:10311000312E436F6C6F6361722070756E746173D2
:1031200000000000436F6D656E7A61720000000060
:1031300043616E63656C617200000000FC0000205A
:103140000C000020000000000000005F00000007ED
:10315000000700147F147F14242A7F2A12231308E7
:10316000646236495522500005030000001C2241CC
:10317000000041221C0014083E081408083E0808FC
:1031800000503000000808080808006060000020B7
:10319000100804023E5149453E00427F4000426112
:1031A0005149462141454B311814127F102745459E
:1031B00045393C4A494930017109050336494949B5
:1031C00036064949291E00363600000056360000F2
:1031D000081422410014141414140041221408028B
:1031E00001510906324979413E7E1111117E7F4914
:1031F0004949363E414141227F4141221C7F494994
:1032000049417F090909013E4149497A7F08080877
:103210007F00417F41002040413F017F081422414F
:103220007F404040407F020C027F7F0408107F3EB9
:103230004141413E7F090909063E4151215E7F0916
:10324000192946464949493101017F01013F404062
:10325000403F1F2040201F3F4038403F6314081468
:103260006307087008076151494543007F414100E9
:1032700002040810200041417F00040201020440C2
:1032800040404040000102040020545454787F48DC
:103290004444383844444420384444487F385454E3
:1032A0005418087E0901020C5252523E7F08040451
:1032B0007800447D40002040443D007F10284400B9
:1032C00000417F40007C041804787C0804047838AE
:1032D000444444387C14141408081414187C7C08E2
:1032E0000404084854545420043F4440203C4040C7
:1032F000207C1C2040201C3C4030403C44281028AE
:10330000440C5050503C4464544C44000836410036
:1033100000007F00000041360800100808100878FF
:103320004641467800000000000000000000000058
:10333000000000000000000000000000000000008D
:10334000000000000000000000000000000000007D
:10335000000000000000000000000000000000006D
:10336000000000000000000000000000000000005D
:10337000000000000000000000000080004000008D
:103380000000000000000000000004000000000039
:10339000000000000000000000001000000200001B
:1033A000000000000000000000004000000180005C
:1033B000000000000000000000018000000180000B
:1033C000000000000000000000018000000040003C
:1033D00000000000000000000002040000004000A7
:1033E00000000000000000000002008400007000E7
:1033F0000000000000000000000FF01F07E0700058
:103400000000000000000000000FC007F80E780068
:103410000000000000000000001F0001FC1FF80079
:103420000000000000000000001F0001E003F800A1
:103430000000000000000000001F00008000F800F5
:103440000000000000000000007E000080007E0000
:103450000000000000000000007E001F80007E00D1
:103460000000000000000000007E001FF8007E0049
:103470000000000000000000007E001FF8007E0039
:103480000000000000000000007F000180007E00BE
:10349000000000000000000001FF00000000FE002E
:1034A000000000000000000001C3C0000003FE2077
:1034B000000000000000000007C0C00000187000FD
:1034C000000000000000000007C01800000010000D
:1034D000000000000000000007C81F8000400490AA
:1034E000000000000000000007CE1F800000422006
:1034F00000000000000000000F0E1E00041802046F
:1035000000000000000000003F0E7E100F201E1F74
:103510000000000000000000FF0E7E043F00FE1FC0
:103520008000000000000001FFFE7E018F0FFFFF02
:10353000E000000000000007FFE21E100F0FFFFF79
:10354000F80000000000001FFFE01E000F0FFFFF4B
:10355000FC0000000000003FFFC0003F0F0FF03FE5
:10356000FF0000000000009FFFC0000000000031CD
:10357000FF000000000000FF0FC00000000000304E
:103580003FC00000000000F00FC00000000E00303F
:1035900007C00000000000E00FC000000000003085
:1035A00001C00000000000000FC000000008003053
:1035B000000000000000000007C00000000FFFF046
:1035C000000000000000000007C000000000001024
:1035D000000000000000000007C00000000E03F023
:1035E000000000000000000001C00000000FFFF01C
:1035F000000000000000000001C00000000FFFE01C
:10360000000000000000000001C00000001FFFE0FB
:10361000000000000000000000400000001FFF80CC
:10362000000000000000000000400000007FFF805C
:10363000000000000000000000000000007FFE000D
:10364000000000000000000000000000001FC0009B
:10365000000000000000000000000000000000006A
:10366000000000000000000000000000000000005A
:10367000000000000000000000000000000000004A
:10368000000000000000000000000000000000003A
:10369000000000000000000000000000000000002A
:1036A000000000000000000000000000000000001A
:1036B000000000000000000000000000000000000A
:1036C00000000000000000000000000000000000FA
:1036D00000000000000000000000000000000000EA
:1036E00000000000000000000000000000000000DA
:1036F00000000000000000000000000000000000CA
:1037000000000000000000000000000000000000B9
:1037100000000000000000000000000000000000A9
:10372000000000000000000000000000010203048F
:103730000607080900000000010203045C370008C6
:103740000000002024000000A22D0008803700089F
:10375000240000201C050000B22D0008000000001D
:103760004080000000000000FF000000000000009A
:1037700000000000100000000100000000A24A0448
:04000005080000ED02
:00000001FF
